:1000000033C0000044C0000042C0000040C00000F7
:100010003EC000003CC000003AC0000038C00000F4
:1000200036C0000034C0000032C0000030C0000004
:100030002EC000002CC000002AC0000028C0000014
:1000400026C0000024C0000022C0000020C0000024
:100050001EC000001CC000001AC0000018C0000034
:1000600016C0000014C0000011241FBECFEFD8E05E
:10007000DEBFCDBF12E0A0E0B1E0E8E7FEE002C0E5
:1000800005900D92A834B107D9F7CCD0F3C6B8CFFC
:1000900060E070E088EC92E4F9D021E030E0449731
:1000A00011F020E030E0C901089560E070E083EED7
:1000B00093E4A6D121E030E0892B11F020E030E07C
:1000C000C901089560E070E68FEA94E499D121E0D7
:1000D00030E08436910511F020E030E0C901089548
:1000E000EF92FF920F931F93CF93DF93CDB7DEB7BD
:1000F0002A970FB6F894DEBF0FBECDBF60E070E068
:1001000088E694E47DD18C011F938F9380E191E088
:100110009F938F931F928AE08F939E012F5F3F4F93
:100120007901FF922F93D9D3C7019ED081E090E04F
:100130000FB6F894DEBF0FBECDBF0233110511F02C
:1001400080E090E02A960FB6F894DEBF0FBECDBFD8
:10015000DF91CF911F910F91FF90EF9008959F92A3
:10016000AF92BF92CF92DF92EF92FF920F931F93C5
:10017000CF93DF93CDB7DEB7C058D1090FB6F8944F
:10018000DEBF0FBECDBF83E191E06ED08BE391E087
:100190006BD000E011E082E7C82E81E0D82E90E815
:1001A000992ECE0101967C01D8011296ED91FC9119
:1001B000139709955C01F80181818F9380818F935A
:1001C000DF92CF921F929F92FF92EF9286D3C70148
:1001D0004BD00FB6F894DEBF0FBECDBFAB2819F4DD
:1001E0008DEA91E041D080EA91E03ED00C5F1F4F54
:1001F00091E000311907C1F68CED91E035D0C0587F
:10020000DF4F0FB6F894DEBF0FBECDBFDF91CF91A9
:100210001F910F91FF90EF90DF90CF90BF90AF9024
:100220009F90089509D09BDF80E791E01DD084E086
:1002300014D080E090E008951092C5008CE0809387
:10024000C400E0ECF0E080818260808388E18093EC
:10025000C10086E08093C20008959091C00095FF90
:10026000FCCF8093C60008951F93CF93DF93EC01DA
:1002700010E0FE01E10FF11D8081882319F0EDDF10
:100280001F5FF7CFDF91CF911F91089520E030E0FD
:1002900040EA50E427D1D8D28DD1CB0108958F9276
:1002A0009F92AF92BF92CF92DF92EF92FF920F9305
:1002B0001F93CF93DF934B015C01EA0169016881D1
:1002C0007981882777FD8095982FA7D19B01AC0174
:1002D000C501B40103D187FF05C06A817B818C8190
:1002E0009D8181C086E08C9D80018D9D100D112423
:1002F000065011090C0F1D1FF801608171818827BC
:1003000077FD8095982F89D19B01AC01C501B4017F
:1003100034D218160CF462C08E0180E090E0F1E057
:10032000CF1AD1089C012F5F3F4F79018C159D0595
:1003300084F4F80166817781882777FD8095982F6E
:100340006CD10A5F1F4FA501940117D218160CF04B
:1003500043C086E08E9DF0018F9DF00D11248E012B
:100360000E0F1F1F3697EC0FFD1FC081D181C28079
:10037000D380E480F580BE01882777FD8095982F93
:100380004CD19B01AC01C501B40143D04B015C01D0
:10039000A7019601F801628173818481958139D02A
:1003A0009B01AC01C501B401ECD14B015C01F8012A
:1003B000608171816C1B7D0B882777FD8095982F5C
:1003C0002CD19B01AC01C501B4018CD09B01AC01C7
:1003D000C701B6011FD007C0C701A4CFF8016281D1
:1003E000738184819581DF91CF911F910F91FF904F
:1003F000EF90DF90CF90BF90AF909F908F90089537
:1004000026E030E043E252E04ADF1ED2D3D0CB01F7
:1004100008955058BB27AA270ED075C166D130F079
:100420006BD120F031F49F3F11F41EF45BC10EF448
:10043000E095E7FB51C1E92F77D180F3BA17620746
:1004400073078407950718F071F49EF58FC10EF4B9
:10045000E0950B2EBA2FA02D0B01B90190010C01D4
:10046000CA01A0011124FF27591B99F0593F50F4EC
:10047000503E68F11A16F040A22F232F342F442744
:10048000585FF3CF469537952795A795F04053953C
:10049000C9F77EF41F16BA0B620B730B840BBAF00C
:1004A0009150A1F0FF0FBB1F661F771F881FC2F777
:1004B0000EC0BA0F621F731F841F48F4879577958B
:1004C0006795B795F7959E3F08F0B3CF9395880F42
:1004D00008F09927EE0F979587950895D9D008F4DD
:1004E00081E008950CD00FC107D140F0FED030F06C
:1004F00021F45F3F19F0F0C0511139C1F3C014D19C
:1005000098F39923C9F35523B1F3951B550BBB27DA
:10051000AA2762177307840738F09F5F5F4F220F87
:10052000331F441FAA1FA9F333D00E2E3AF0E0E880
:1005300030D091505040E695001CCAF729D0FE2FCC
:1005400027D0660F771F881FBB1F2617370748075E
:10055000AB07B0E809F0BB0B802DBF01FF27935814
:100560005F4F2AF09E3F510568F0B6C000C15F3F63
:10057000ECF3983EDCF3869577956795B795F795FC
:100580009F5FC9F7880F911D9695879597F90895F4
:10059000E1E0660F771F881FBB1F62177307840790
:1005A000BA0720F0621B730B840BBA0BEE1F88F79F
:1005B000E095089504D06894B111D9C00895BCD0D5
:1005C00088F09F5790F0B92F9927B751A0F0D1F03C
:1005D000660F771F881F991F1AF0BA95C9F712C0C6
:1005E000B13081F0C3D0B1E00895C0C0672F782F3B
:1005F0008827B85F39F0B93FCCF386957795679532
:10060000B395D9F73EF490958095709561957F4F9D
:100610008F4F9F4F0895E89409C097FB3EF4909543
:100620008095709561957F4F8F4F9F4F9923A9F0CB
:10063000F92F96E9BB279395F6958795779567955A
:10064000B795F111F8CFFAF4BB0F11F460FF1BC09E
:100650006F5F7F4F8F4F9F4F16C0882311F096E931
:1006600011C0772321F09EE8872F762F05C06623DF
:1006700071F096E8862F70E060E02AF09A95660F98
:10068000771F881FDAF7880F9695879597F9089551
:10069000990F0008550FAA0BE0E8FEEF1616170693
:1006A000E807F907C0F012161306E407F50798F0FB
:1006B000621B730B840B950B39F40A2661F0232B14
:1006C000242B252B21F408950A2609F4A140A69590
:1006D0008FEF811D811D089597F99F6780E870E075
:1006E00060E008959FEF80EC089500240A941616A8
:1006F000170618060906089500240A941216130610
:10070000140605060895092E0394000C11F488239D
:1007100052F0BB0F40F4BF2B11F460FF04C06F5FB9
:100720007F4F8F4F9F4F089557FD9058440F551F8F
:1007300059F05F3F71F04795880F97FB991F61F063
:100740009F3F79F087950895121613061406551FDA
:10075000F2CF4695F1DF08C0161617061806991F46
:10076000F1CF86957105610508940895E894BB273B
:1007700066277727CB0197F908958ADF08F48FEF72
:1007800008950BD0C0CFB1DF28F0B6DF18F0952365
:1007900009F0A2CFA7CF1124EACFC6DFA0F3959F1F
:1007A000D1F3950F50E0551F629FF001729FBB2758
:1007B000F00DB11D639FAA27F00DB11DAA1F649F04
:1007C0006627B00DA11D661F829F2227B00DA11DB7
:1007D000621F739FB00DA11D621F839FA00D611D3D
:1007E000221F749F3327A00D611D231F849F600D5E
:1007F000211D822F762F6A2F11249F5750408AF097
:10080000E1F088234AF0EE0FFF1FBB1F661F771F22
:10081000881F91505040A9F79E3F510570F05CCF62
:10082000A6CF5F3FECF3983EDCF38695779567950E
:10083000B795F795E7959F5FC1F7FE2B880F911D40
:100840009695879597F9089577DFE0F09E37D8F071
:100850009639B8F49E3848F4672F782F8827985F28
:10086000F9CF86957795679593959539D0F3B62FFF
:10087000B1706B0F711D811D20F487957795679579
:10088000939502C01CC073CF882371F4772321F0A5
:100890009850872B762F07C0662311F499270DC037
:1008A0009051862B70E060E02AF09A95660F771FD2
:1008B000881FDAF7880F9695879597F908959F3FD7
:1008C00031F0915020F4879577956795B795880F0B
:1008D000911D9695879597F90895AEE0B0E0E2E70F
:1008E000F4E09FC20D891E898F89988D26E02C83A4
:1008F0001A83098397FF02C080E090E801979E83E6
:100900008D83AE01455E5F4F698D7A8DCE01019674
:1009100011D04D815E8157FD0AC02F813885421765
:1009200053070CF49A01F801E20FF31F10822E9680
:10093000E4E093C2ACE0B0E0EFE9F4E064C27C0133
:100940006B018A01FC0117821682838181FFB0C18D
:10095000CE0101964C01F7019381F60193FD85913B
:1009600093FF81916F01882309F49EC1853239F488
:1009700093FD859193FF81916F01853221F4B70139
:1009800090E0B1D1E8CF512C312C20E02032A0F4FE
:100990008B3269F030F4803259F0833269F420618F
:1009A0002CC08D3239F0803339F4216026C02260AA
:1009B000246023C0286021C027FD27C030ED380FF8
:1009C0003A3078F426FF06C0FAE05F9E300D11241D
:1009D000532E13C08AE0389E300D1124332E20622E
:1009E0000CC08E3221F426FD5FC1206406C08C3617
:1009F00011F4206802C0883641F4F60193FD859118
:100A000093FF81916F018111C1CF982F9F7D9554E4
:100A1000933028F40C5F1F4FFFE3F9830DC083363A
:100A200031F0833771F0833509F057C021C0F801E8
:100A3000808189830E5F1F4F44244394512C5401BD
:100A400014C03801F2E06F0E711CF801A080B18073
:100A500026FF03C0652D70E002C06FEF7FEFC50178
:100A60002C8736D12C0183012C852F77222E16C09E
:100A70003801F2E06F0E711CF801A080B18026FFF2
:100A800003C0652D70E002C06FEF7FEFC5012C87BA
:100A900014D12C012C852068222E830123FC19C03F
:100AA000832D90E048165906A0F4B70180E290E04B
:100AB0001AD13A94F5CFF50127FC859127FE819153
:100AC0005F01B70190E00FD131103A94F1E04F1A75
:100AD00051084114510479F7DEC0843611F089368B
:100AE00031F5F80127FF07C0608171818281938110
:100AF0000C5F1F4F08C060817181882777FD80954A
:100B0000982F0E5F1F4F2F76B22E97FF09C090953A
:100B10008095709561957F4F8F4F9F4F2068B22EC3
:100B20002AE030E0A40111D1A82EA81843C08537CF
:100B300029F42F7EB22E2AE030E025C0F22FF97F73
:100B4000BF2E8F36C1F018F4883579F0ADC08037EC
:100B500019F0883721F0A8C02F2F2061B22EB4FEE3
:100B60000DC08B2D8460B82E09C024FF0AC09F2FB2
:100B70009660B92E06C028E030E005C020E130E0E4
:100B800002C020E132E0F801B7FE07C06081718148
:100B9000828193810C5F1F4F06C06081718180E06C
:100BA00090E00E5F1F4FA401D0D0A82EA818FB2DF7
:100BB000FF77BF2EB6FE0BC02B2D2E7FA51450F451
:100BC000B4FE0AC0B2FC08C02B2D2E7E05C07A2CC4
:100BD0002B2D03C07A2C01C0752C24FF0DC0FE0103
:100BE000EA0DF11D8081803311F4297E09C022FFB6
:100BF00006C07394739404C0822F867809F07394AE
:100C000023FD12C020FF06C05A2C731418F4530C95
:100C10005718732C731460F4B70180E290E02C87AE
:100C200062D073942C85F6CF731410F4371801C07A
:100C3000312C24FF11C0B70180E390E02C8753D002
:100C40002C8522FF16C021FF03C088E590E002C07A
:100C500088E790E0B7010CC0822F867851F021FD23
:100C600002C080E201C08BE227FD8DE2B70190E077
:100C70003AD0A51430F4B70180E390E034D05A9410
:100C8000F8CFAA94F401EA0DF11D8081B70190E03C
:100C90002AD0A110F6CF332009F45DCEB70180E24F
:100CA00090E021D03A94F7CFF7018681978102C076
:100CB0008FEF9FEF2C96E2E1C2C0FC0105906150DE
:100CC00070400110D8F7809590958E0F9F1F089562
:100CD000FC016150704001900110D8F7809590950B
:100CE0008E0F9F1F08950F931F93CF93DF93182F9D
:100CF000092FEB018B8181FD03C08FEF9FEF20C097
:100D000082FF10C04E815F812C813D8142175307C5
:100D10007CF4E881F9819F012F5F3F4F398328835D
:100D2000108306C0E885F985812F0995892B29F75D
:100D30002E813F812F5F3F4F3F832E83812F902F46
:100D4000DF91CF911F910F910895FA01AA272830C2
:100D500051F1203181F1E8946F936E7F6E5F7F4F88
:100D60008F4F9F4FAF4FB1E03ED0B4E03CD0670F04
:100D7000781F891F9A1FA11D680F791F8A1F911D57
:100D8000A11D6A0F711D811D911DA11D20D009F4A7
:100D900068943F912AE0269F11243019305D3193E9
:100DA000DEF6CF010895462F4770405D4193B3E0D2
:100DB0000FD0C9F7F6CF462F4F70405D4A3318F079
:100DC000495D31FD4052419302D0A9F7EACFB4E02A
:100DD000A6959795879577956795BA95C9F70097E2
:100DE0006105710508959B01AC010A2E0694579583
:100DF000479537952795BA95C9F7620F731F841FDA
:100E0000951FA01D08952F923F924F925F926F926F
:100E10007F928F929F92AF92BF92CF92DF92EF928A
:100E2000FF920F931F93CF93DF93CDB7DEB7CA1B0B
:100E3000DB0B0FB6F894DEBF0FBECDBF09942A8836
:100E4000398848885F846E847D848C849B84AA84DE
:100E5000B984C884DF80EE80FD800C811B81AA816B
:100E6000B981CE0FD11D0FB6F894DEBF0FBECDBF36
:080E7000ED010895F894FFCF95
:100E7800EA014800F60155000402700013026200FE
:100E88002564003C3F786D6C2076657273696F6EDF
:100E98003D22312E302220656E636F64696E673D96
:100EA800225554462D38223F3E0A003C746573741F
:100EB8007375697465206E616D653D226C616D6244
:100EC80064612D74657374222074657374733D2294
:100ED8003222206661696C757265733D2230223E4C
:100EE8000A003C746573746361736520636C617395
:100EF800736E616D653D226C616D6264612D746510
:100F0800737422206E616D653D222573223E0A00AE
:100F18003C2F74657374636173653E0A003C6661B7
:100F2800696C75726520747970653D226661696CBB
:100F3800757265223E54657374206661696C6564D8
:100F48003C2F6661696C7572653E0A003C2F7465BA
:100F5800737473756974653E0A0074657374546FAD
:100F680054656D70490074657374546F54656D7081
:100F78004F30430074657374546F54656D704F350A
:100F880030430074657374546F54656D704F31301D
:100F9800304300C7FF000048C2C601000000007BC4
:100FA800050000C842D80800004843E70B00009637
:080FB80043B20E0000C8430023
:00000001FF
