:10000000B0C00000CAC00000C8C00000C6C00000E8
:10001000C4C00000C2C00000C0C00000BEC00000DC
:10002000BCC00000BAC00000B8C00000B6C00000EC
:10003000B4C00000B2C00000B0C00000AEC00000FC
:10004000ACC00000AAC00000A8C00000A6C000000C
:10005000A4C00000A3C00000A0C000009EC000001B
:100060009CC000009AC0000000407A10F35A00A023
:10007000724E18090010A5D4E80000E87648170071
:1000800000E40B54020000CA9A3B000000E1F505B1
:10009000000080969800000040420F000000A086FB
:1000A00001000000102700000000E803000000002D
:1000B0006400000000000A000000000001000000D1
:1000C00000002C76D888DC674F0823DFC1DFAE59EB
:1000D000E1B1B796E5E3E453C63AE651997696E87E
:1000E000E6C28426EB898C9B62ED407C6FFCEFBC02
:1000F0009C9F40F2BAA56FA5F490055A2AF75C932D
:100100006B6CF9676DC11BFCE0E40D47FEF520E662
:10011000B500D0ED902E0300943577050080841E45
:10012000080000204E0A000000C80C333333330FA0
:10013000986E12831141EF8D2114893BE65516CF3D
:10014000FEE6DB18D1844B381BF77C1D901DA4BB49
:10015000E424203284725E228100C9F124ECA1E5FE
:100160003D2711241FBECFEFD8E0DEBFCDBF11E089
:10017000A0E0B1E0E6E0F8E102C005900D92AE3BF0
:10018000B107D9F721E0AEEBB1E001C01D92AA3C66
:10019000B207E1F737D30C94010C32CF1895ECE796
:1001A000F0E0808180648083EAE7F0E08081846011
:1001B0008083808180688083089583B7817F826097
:1001C00083BFEAE7F0E080818860808378940895B7
:1001D0002F923F924F925F926F927F928F929F9257
:1001E000AF92BF92CF92DF92EF92FF920F931F9345
:1001F000CF93DF93CDB7DEB7CE56D1090FB6F894C3
:10020000DEBF0FBECDBF982E892EAC966FAFAC97D8
:10021000AD967FAFAD97742E622E17012801C601EF
:10022000B5016E012EE5C20ED11C860123E045E02A
:10023000AF963FAFAF97AE965FAFAE97A0D55E01DA
:1002400081E5A80EB11C850123E045E0C201B101A2
:1002500096D5AE965FADAE975F937F92AF963FAD6A
:10026000AF973F936F928F929F92AD969FADAD9750
:100270009F93AC962FADAC972F9380E091E09F9326
:100280008F931F9218E21F934E0189E2880E911CF2
:100290009F928F9294D5BF92AF92DF92CF928CE1D2
:1002A00091E09F938F931F921F938E010F5F1F4FBB
:1002B0001F930F9384D5C401D3D2C801D1D20FB6F6
:1002C000F894DEBF0FBECDBFC259DF4F0FB6F89412
:1002D000DEBF0FBECDBFDF91CF911F910F91FF9079
:1002E000EF90DF90CF90BF90AF909F908F907F90D6
:1002F0006F905F904F903F902F90089590917C0069
:10030000907F982B90937C0020E130E080E090E09B
:10031000DC0143B7416043BF889543B74E7F43BF7D
:100320004091780050917900840F951FA11DB11D57
:10033000215031092115310561F79C01AD0182E0A1
:1003400056954795379527958A95D1F7A2EFB2E153
:1003500099D22CE096958795779567952A95D1F750
:10036000695F7F4F8F4F9F4FA8D376D3CB010895FE
:10037000CF92DF92EF92FF926B017C0120E030E0A0
:10038000A901FED287FD0BC020E030E040EA50E436
:10039000C701B601F9D2AAD45FD3CB0102C080E075
:1003A00090E0FF90EF90DF90CF9008958F929F9212
:1003B000AF92BF92CF92DF92EF92FF920F931F9373
:1003C000CF93DF934B015C01EA0169016881798178
:1003D000882777FD8095982F72D39B01AC01C501CA
:1003E000B401CED287FF05C06A817B818C819D815B
:1003F00081C086E08C9D80018D9D100D11240650DA
:1004000011090C0F1D1FF80160817181882777FD8C
:100410008095982F54D39B01AC01C501B401FFD343
:1004200018160CF462C08E0180E090E0F1E0CF1A63
:10043000D1089C012F5F3F4F79018C159D0584F4F5
:10044000F80166817781882777FD8095982F37D3CB
:100450000A5F1F4FA5019401E2D318160CF043C0A8
:1004600086E08E9DF0018F9DF00D11248E010E0F00
:100470001F1F3697EC0FFD1FC081D181C280D38032
:10048000E480F580BE01882777FD8095982F17D3EB
:100490009B01AC01C501B4010ED24B015C01A70167
:1004A0009601F801628173818481958104D29B0158
:1004B000AC01C501B401B7D34B015C01F801608107
:1004C00071816C1B7D0B882777FD8095982FF7D263
:1004D0009B01AC01C501B40157D29B01AC01C7011E
:1004E000B601EAD107C0C701A4CFF80162817381C8
:1004F00084819581DF91CF911F910F91FF90EF90B3
:10050000DF90CF90BF90AF909F908F9008954F92C3
:100510005F926F927F928F929F92AF92BF92CF9293
:10052000DF92EF92FF920F931F93CF93DF93CDB79C
:10053000DEB76B970FB6F894DEBF0FBECDBF6B0171
:100540007C0120E030E0A9011BD287FD42C025E0FC
:1005500030E045E451E0C701B60128DF20E030E497
:100560004CE955E411D220E030E947E955E45BD38A
:100570004B015C0120E030E84CED53E4C701B601CB
:100580009AD1A501940100D2B1D366D22B013C01CE
:100590007E018FE0E80EF11C870122E045E0C501F5
:1005A000B401EDD3FF92EF9289E291E09F938F9394
:1005B0001F928EE08F930E5011091F930F93FFD35C
:1005C000C8014ED10FB6F894DEBF0FBECDBFC20139
:1005D00002C080E090E06B960FB6F894DEBF0FBECD
:1005E000CDBFDF91CF911F910F91FF90EF90DF90E2
:1005F000CF90BF90AF909F908F907F906F905F90C3
:100600004F9008952F923F924F925F926F927F92F8
:100610008F929F92AF92BF92CF92DF92EF92FF9212
:100620000F931F93CF93DF93CDB7DEB728970FB605
:10063000F894DEBF0FBECDBF6D837E838F83988716
:1006400029833A834B835C8393DE1C0169817A8121
:100650008B819C815CDF4C012FE030E043E651E070
:10066000C801B701A3DE5B016C0169817A818B81CE
:100670009C81F2D169837A838B839C836D817E8197
:100680008F819885E9D1DC01CB01940149815A81A0
:10069000B1019EDD28960FB6F894DEBF0FBECDBF28
:1006A000DF91CF911F910F91FF90EF90DF90CF904E
:1006B000BF90AF909F908F907F906F905F904F9082
:1006C0003F902F900895CF92DF92EF92FF920F9379
:1006D0001F9382E090E012DEBC01882777FD8095B1
:1006E000982FEDD120E030E040E351E44DD16B0193
:1006F0007C0120E030E040E051E46091C60170915F
:10070000C7018091C8019091C9018DD29B01AC01B4
:10071000C701B601D1D020E030E040E151E434D14E
:100720006093C6017093C7018093C8019093C9017B
:1007300085E090E0E3DDBC01882777FD8095982F68
:10074000BED16B017C016091C2017091C3018091A7
:10075000C4019091C5019B01AC01AED09B01AC01DD
:10076000C701B601A9D020E030E040E450E40CD14C
:100770006093C2017093C3018093C4019093C5013B
:1007800080E090E0BBDDBC01882777FD8095982F45
:1007900096D16B017C016091BE017091BF01809187
:1007A000C0019091C1019B01AC0186D09B01AC01BD
:1007B000C701B60181D020E030E040E450E4E4D04D
:1007C0009B01AC016093BE017093BF018093C00197
:1007D0009093C101E090C601F090C7010091C8015B
:1007E0001091C9016091C2017091C3018091C4014F
:1007F0009091C50107DF1F910F91FF90EF90DF905F
:10080000CF90089515D0CBDCD8DCE12CF12C8701FA
:10081000A8019701C801B701F5DE55DF2FE38DE090
:1008200093E0215080409040E1F700C00000F5CFF8
:100830001092C5008CE08093C400E0ECF0E0808171
:100840008260808388E18093C10086E08093C2004B
:1008500008959091C00095FFFCCF8093C600089545
:100860001F93CF93DF93EC0110E0FE01E10FF11D28
:100870008081882319F0EDDF1F5FF7CFDF91CF91E3
:100880001F91089509D0A59F900DB49F900DA49F2E
:10089000800D911D11240895A29FB001B39FC00146
:1008A000A39F700D811D1124911DB29F700D811D9C
:1008B0001124911D08955058BB27AA270ED075C149
:1008C00066D130F06BD120F031F49F3F11F41EF46B
:1008D0005BC10EF4E095E7FB51C1E92F77D180F3BE
:1008E000BA17620773078407950718F071F49EF52D
:1008F0008FC10EF4E0950B2EBA2FA02D0B01B9017C
:1009000090010C01CA01A0011124FF27591B99F085
:10091000593F50F4503E68F11A16F040A22F232F91
:10092000342F4427585FF3CF469537952795A795E1
:10093000F0405395C9F77EF41F16BA0B620B730B88
:10094000840BBAF09150A1F0FF0FBB1F661F771FF9
:10095000881FC2F70EC0BA0F621F731F841F48F4AE
:10096000879577956795B795F7959E3F08F0B3CF34
:100970009395880F08F09927EE0F9795879508951E
:10098000D9D008F481E008950CD00FC107D140F010
:10099000FED030F021F45F3F19F0F0C0511139C1A1
:1009A000F3C014D198F39923C9F35523B1F3951BE0
:1009B000550BBB27AA2762177307840738F09F5F80
:1009C0005F4F220F331F441FAA1FA9F333D00E2EEF
:1009D0003AF0E0E830D091505040E695001CCAF75C
:1009E00029D0FE2F27D0660F771F881FBB1F261721
:1009F00037074807AB07B0E809F0BB0B802DBF01F4
:100A0000FF2793585F4F2AF09E3F510568F0B6C00C
:100A100000C15F3FECF3983EDCF3869577956795D0
:100A2000B795F7959F5FC9F7880F911D96958795A4
:100A300097F90895E1E0660F771F881FBB1F6217C3
:100A400073078407BA0720F0621B730B840BBA0B81
:100A5000EE1F88F7E095089504D06894B111D9C0CD
:100A60000895BCD088F09F5790F0B92F9927B751BF
:100A7000A0F0D1F0660F771F881F991F1AF0BA9562
:100A8000C9F712C0B13081F0C3D0B1E00895C0C041
:100A9000672F782F8827B85F39F0B93FCCF3869558
:100AA00077956795B395D9F73EF4909580957095B5
:100AB00061957F4F8F4F9F4F0895E89409C097FB32
:100AC0003EF490958095709561957F4F8F4F9F4F25
:100AD0009923A9F0F92F96E9BB279395F695879569
:100AE00077956795B795F111F8CFFAF4BB0F11F42C
:100AF00060FF1BC06F5F7F4F8F4F9F4F16C08823D3
:100B000011F096E911C0772321F09EE8872F762F08
:100B100005C0662371F096E8862F70E060E02AF049
:100B20009A95660F771F881FDAF7880F9695879535
:100B300097F90895990F0008550FAA0BE0E8FEEF0A
:100B400016161706E807F907C0F012161306E40791
:100B5000F50798F0621B730B840B950B39F40A268A
:100B600061F0232B242B252B21F408950A2609F468
:100B7000A140A6958FEF811D811D089597F99F676C
:100B800080E870E060E008959FEF80EC0895002415
:100B90000A941616170618060906089500240A94E2
:100BA00012161306140605060895092E0394000C68
:100BB00011F4882352F0BB0F40F4BF2B11F460FFF7
:100BC00004C06F5F7F4F8F4F9F4F089557FD905820
:100BD000440F551F59F05F3F71F04795880F97FB01
:100BE000991F61F09F3F79F08795089512161306BB
:100BF0001406551FF2CF4695F1DF08C016161706EA
:100C00001806991FF1CF869571056105089408951E
:100C1000E894BB2766277727CB0197F908958ADFE9
:100C200008F48FEF08950BD0C0CFB1DF28F0B6DF06
:100C300018F0952309F0A2CFA7CF1124EACFC6DF81
:100C4000A0F3959FD1F3950F50E0551F629FF001DF
:100C5000729FBB27F00DB11D639FAA27F00DB11D38
:100C6000AA1F649F6627B00DA11D661F829F2227C1
:100C7000B00DA11D621F739FB00DA11D621F839F48
:100C8000A00D611D221F749F3327A00D611D231F1E
:100C9000849F600D211D822F762F6A2F11249F576C
:100CA00050408AF0E1F088234AF0EE0FFF1FBB1F8F
:100CB000661F771F881F91505040A9F79E3F51052E
:100CC00070F05CCFA6CF5F3FECF3983EDCF38695E7
:100CD00077956795B795F795E7959F5FC1F7FE2BD9
:100CE000880F911D9695879597F9089577DFE0F025
:100CF0009E37D8F09639B8F49E3848F4672F782F8D
:100D00008827985FF9CF869577956795939595395C
:100D1000D0F3B62FB1706B0F711D811D20F4879534
:100D200077956795939502C01CC073CF882371F4A3
:100D3000772321F09850872B762F07C0662311F474
:100D400099270DC09051862B70E060E02AF09A95AB
:100D5000660F771F881FDAF7880F9695879597F9A2
:100D600008959F3F31F0915020F4879577956795CE
:100D7000B795880F911D9695879597F90895EF92ED
:100D80000F931F93CF93DF93E80147FF02C034E135
:100D900001C034E0E42FFF27E7FDF095F7FF03C023
:100DA000F195E195F109E32E022F2E2FAE01F7D137
:100DB000CE01DF91CF911F910F91EF900895AEE09A
:100DC000B0E0E4EEF6E0F4C40D891E898F89988DB9
:100DD00026E02C831A83098397FF02C080E090E805
:100DE00001979E838D83AE01455E5F4F698D7A8D3D
:100DF000CE01019611D04D815E8157FD0AC02F8131
:100E00003885421753070CF49A01F801E20FF31FDB
:100E100010822E96E4E0E8C4ACE0B0E0E1E1F7E057
:100E2000B9C47C016B018A01FC011782168283819F
:100E300081FFB0C1CE0101964C01F7019381F6010B
:100E400093FD859193FF81916F01882309F49EC1E1
:100E5000853239F493FD859193FF81916F0185323D
:100E600021F4B70190E006D4E8CF512C312C20E0DA
:100E70002032A0F48B3269F030F4803259F08332A2
:100E800069F420612CC08D3239F0803339F421604F
:100E900026C02260246023C0286021C027FD27C00F
:100EA00030ED380F3A3078F426FF06C0FAE05F9E46
:100EB000300D1124532E13C08AE0389E300D1124BA
:100EC000332E20620CC08E3221F426FD5FC12064D7
:100ED00006C08C3611F4206802C0883641F4F60151
:100EE00093FD859193FF81916F018111C1CF982F5F
:100EF0009F7D9554933028F40C5F1F4FFFE3F983D7
:100F00000DC0833631F0833771F0833509F057C057
:100F100021C0F801808189830E5F1F4F44244394D0
:100F2000512C540114C03801F2E06F0E711CF8010D
:100F3000A080B18026FF03C0652D70E002C06FEF76
:100F40007FEFC5012C878BD32C0183012C852F7754
:100F5000222E16C03801F2E06F0E711CF801A0803D
:100F6000B18026FF03C0652D70E002C06FEF7FEFF8
:100F7000C5012C8769D32C012C852068222E830182
:100F800023FC19C0832D90E048165906A0F4B70140
:100F900080E290E06FD33A94F5CFF50127FC85917C
:100FA00027FE81915F01B70190E064D331103A943C
:100FB000F1E04F1A51084114510479F7DEC084362C
:100FC00011F0893631F5F80127FF07C06081718182
:100FD000828193810C5F1F4F08C0608171818827D7
:100FE00077FD8095982F0E5F1F4F2F76B22E97FFBB
:100FF00009C090958095709561957F4F8F4F9F4F59
:101000002068B22E2AE030E0A40166D3A82EA818EA
:1010100043C0853729F42F7EB22E2AE030E025C068
:10102000F22FF97FBF2E8F36C1F018F4883579F092
:10103000ADC0803719F0883721F0A8C02F2F20616C
:10104000B22EB4FE0DC08B2D8460B82E09C024FFD3
:101050000AC09F2F9660B92E06C028E030E005C078
:1010600020E130E002C020E132E0F801B7FE07C025
:1010700060817181828193810C5F1F4F06C0608106
:10108000718180E090E00E5F1F4FA40125D3A82E50
:10109000A818FB2DFF77BF2EB6FE0BC02B2D2E7F81
:1010A000A51450F4B4FE0AC0B2FC08C02B2D2E7E4D
:1010B00005C07A2C2B2D03C07A2C01C0752C24FF7F
:1010C0000DC0FE01EA0DF11D8081803311F4297EEF
:1010D00009C022FF06C07394739404C0822F8678DF
:1010E00009F0739423FD12C020FF06C05A2C73141C
:1010F00018F4530C5718732C731460F4B70180E282
:1011000090E02C87B7D273942C85F6CF731410F42B
:10111000371801C0312C24FF11C0B70180E390E0E3
:101120002C87A8D22C8522FF16C021FF03C088E59A
:1011300090E002C088E790E0B7010CC0822F86786B
:1011400051F021FD02C080E201C08BE227FD8DE25B
:10115000B70190E08FD2A51430F4B70180E390E09E
:1011600089D25A94F8CFAA94F401EA0DF11D808136
:10117000B70190E07FD2A110F6CF332009F45DCE05
:10118000B70180E290E076D23A94F7CFF7018681FA
:10119000978102C08FEF9FEF2C96E2E117C36F9209
:1011A0007F929F92AF92BF92CF92DF92EF92FF9287
:1011B0000F931F93CF93DF93CDB7DEB729970FB669
:1011C000F894DEBF0FBECDBF6A01B22E102F0C33D4
:1011D00020F4FF24F394F00E02C04CE3F42E0F2D04
:1011E00027E0AE014F5F5F4F57D17981272F2970DC
:1011F000213031F0E1FC06C0E0FC06C060E005C033
:101200006DE203C06BE201C060E2AE2DA07173FF1E
:1012100036C0662311F084E001C083E08B1510F422
:10122000B81A01C0B12CA1110BC0F6018B2D90E2B0
:10123000882319F091938150FBCFCB0CD11CB12C9A
:10124000662331F0F601608396012F5F3F4F6901FD
:10125000C6010396E2FE05C02EE4F601208331E4C8
:1012600004C02EE6F601208331E631832283FC019F
:101270002B2D30E22223F1F131932150FBCF72FF6D
:1012800040C0662311F084E001C083E08B1510F4A8
:10129000B81A01C0B12CA1110BC0F6018B2D90E240
:1012A000882319F091938150FBCFCB0CD11CB12C2A
:1012B000662331F0F601608396012F5F3F4F69018D
:1012C000C6010396E2FE07C029E4F60120832EE45E
:1012D000218326E406C029E6F60120832EE6218339
:1012E00026E62283FC012B2D30E2222319F03193D4
:1012F0002150FBCFFC01EB0DF11D10828EEF9FEF13
:10130000B7C0B1E0611101C0B0E04B2F50E018163A
:10131000190624F49C012F5F3F4F02C021E030E00A
:10132000240F351F112329F0412F50E04F5F5F4FED
:1013300002C040E050E0420F531F2B2D30E0421717
:10134000530714F4B41A01C0B12C2E2D287159F48E
:10135000F6012B2D30E2222319F031932150FBCFDF
:10136000CB0CD11CB12CBB2331F0F601608396016C
:101370002F5F3F4F6901A1110BC0F6012B2D30E308
:10138000222319F031932150FBCFCB0CD11CB12C6F
:10139000F80E0A81372F3071A32E74FF03C001337A
:1013A00009F4FA941F142CF42F2D293018F028E09A
:1013B00001C021E0682F392F97FF02C060E030E0C4
:1013C000462F532F612C712C3EE2932EBC01621BE1
:1013D00071099B01DC01A41BB50BE1E0F0E0EC0F0F
:1013E000FD1FAE0FBF1FE12EF12CF194E194F10827
:1013F0004F3FFFEF5F0731F4F6019082B6016F5F58
:101400007F4F6B01841795074CF02417350734F490
:10141000BD01660D771DFB01118101C010E3415034
:101420005109FFEF6F1A7F0AB6016F5F7F4F4E15AC
:101430005F0524F0F60110836B01DACF48175907D6
:1014400039F4063320F4053319F4A11001C011E377
:10145000F6011083FB018B2D90E2882319F0919304
:101460008150FBCFFB01EB0DF11D108280E090E07D
:1014700029960FB6F894DEBF0FBECDBFDF91CF9196
:101480001F910F91FF90EF90DF90CF90BF90AF90A2
:101490009F907F906F900895283008F027E03327C1
:1014A000DA01990F311D87FD916000966105710584
:1014B00039F432602E5F3D9330E32A95E1F70895C9
:1014C0009F3F30F080387105610509F03C5F3C5F5B
:1014D0003D93913008F08068911DDF93CF931F9367
:1014E0000F93FF92EF92192F987F9695E92F96957B
:1014F0009695E90FFF27EE53FF4F99273327EE24E8
:10150000FF24A701E70105900894079428F4360FFB
:10151000E71EF81E491F511D660F771F881F991F70
:101520000694A1F70590079428F4E70EF81E491FCA
:10153000561FC11D770F881F991F661F0694A1F7BC
:101540000590079428F4F80E491F561FC71FD11D98
:10155000880F991F661F771F0694A1F705900794BF
:1015600020F4490F561FC71FD81F990F661F771FFA
:10157000881F0694A9F784911095177041F0D695AD
:10158000C79557954795F794E7941A95C1F7E8E6FC
:10159000F0E06894159015913591659195910590BD
:1015A0007FE27395E118F10A430B560BC90BD00982
:1015B000C0F7E10CF11E431F561FC91FD01D7EF45A
:1015C000703311F48A95E6CFE894015030F0080F9B
:1015D0000AF40027021708F4202F2395022F7A33EC
:1015E00028F079E37D932A95E9F710C07D932A9539
:1015F00089F6069497956795379517951794E1188E
:10160000F10A430B560BC90BD00998F023957E9134
:1016100073957A3308F070E37C932013B8F77E91CA
:1016200070617D9330F0839571E37D9370E32A952B
:10163000E1F71124EF90FF900F911F91CF91DF916F
:10164000992787FD90950895FC01059061507040A1
:101650000110D8F7809590958E0F9F1F0895FC017B
:101660006150704001900110D8F7809590958E0FD1
:101670009F1F08950F931F93CF93DF93182F092F68
:10168000EB018B8181FD03C08FEF9FEF20C082FFB4
:1016900010C04E815F812C813D81421753077CF43D
:1016A000E881F9819F012F5F3F4F398328831083A1
:1016B00006C0E885F985812F0995892B29F72E81A8
:1016C0003F812F5F3F4F3F832E83812F902FDF91EC
:1016D000CF911F910F910895FA01AA27283051F157
:1016E000203181F1E8946F936E7F6E5F7F4F8F4F53
:1016F0009F4FAF4FB1E03ED0B4E03CD0670F781FB2
:10170000891F9A1FA11D680F791F8A1F911DA11D96
:101710006A0F711D811D911DA11D20D009F46894CF
:101720003F912AE0269F11243019305D3193DEF677
:10173000CF010895462F4770405D4193B3E00FD02D
:10174000C9F7F6CF462F4F70405D4A3318F0495D18
:1017500031FD4052419302D0A9F7EACFB4E0A695FB
:101760009795879577956795BA95C9F7009761051D
:10177000710508959B01AC010A2E06945795479573
:1017800037952795BA95C9F7620F731F841F951F68
:10179000A01D08952F923F924F925F926F927F9279
:1017A0008F929F92AF92BF92CF92DF92EF92FF9271
:1017B0000F931F93CF93DF93CDB7DEB7CA1BDB0B1D
:1017C0000FB6F894DEBF0FBECDBF09942A883988C2
:1017D00048885F846E847D848C849B84AA84B984C9
:1017E000C884DF80EE80FD800C811B81AA81B981D5
:1017F000CE0FD11D0FB6F894DEBF0FBECDBFED01E9
:061800000895F894FFCFEB
:101806005469202533642043202564202020546F0A
:101816002025336420432025640D0A004C202573BF
:101826002020282573290D0A006D562F4320257385
:101836000D0A004D6167657200496465616C00467A
:101846006574742100C7011F851F417B050AD717E0
:1018560041D808CDCC1041E70B713D0A41B20EECE0
:1018660051044104000000004005003333F33F06F5
:10187600006666E63F08009A99D93F0A00CDCCCCAF
:101886003F0C000000C03F0F003333B33F14006627
:1018960066A63F1C009A99993F2800CDCC8C3F4400
:1018A600003333833F90010000803F200348E17AF4
:0E18B6003F5C036666663F7003CDCC4C3F007E
:00000001FF
